{
  "contractName": "FileStorage",
  "abi": [
    {
      "anonymous": false,
      "inputs": [
        {
          "indexed": true,
          "internalType": "uint256",
          "name": "fileId",
          "type": "uint256"
        },
        {
          "indexed": false,
          "internalType": "string",
          "name": "ipfsHash",
          "type": "string"
        },
        {
          "indexed": false,
          "internalType": "string",
          "name": "timeLocationCoordinates",
          "type": "string"
        },
        {
          "indexed": false,
          "internalType": "string",
          "name": "description",
          "type": "string"
        }
      ],
      "name": "FileAdded",
      "type": "event"
    },
    {
      "inputs": [],
      "name": "fileCount",
      "outputs": [
        {
          "internalType": "uint256",
          "name": "",
          "type": "uint256"
        }
      ],
      "stateMutability": "view",
      "type": "function",
      "constant": true
    },
    {
      "inputs": [
        {
          "internalType": "uint256",
          "name": "",
          "type": "uint256"
        }
      ],
      "name": "files",
      "outputs": [
        {
          "internalType": "string",
          "name": "ipfsHash",
          "type": "string"
        },
        {
          "internalType": "string",
          "name": "timeLocationCoordinates",
          "type": "string"
        },
        {
          "internalType": "string",
          "name": "description",
          "type": "string"
        }
      ],
      "stateMutability": "view",
      "type": "function",
      "constant": true
    },
    {
      "inputs": [
        {
          "internalType": "string",
          "name": "_ipfsHash",
          "type": "string"
        },
        {
          "internalType": "string",
          "name": "_timeLocationCoordinates",
          "type": "string"
        },
        {
          "internalType": "string",
          "name": "_description",
          "type": "string"
        }
      ],
      "name": "addFile",
      "outputs": [],
      "stateMutability": "nonpayable",
      "type": "function"
    }
  ],
  "bytecode": "0x608060405234801561001057600080fd5b5061081c806100206000396000f3fe608060405234801561001057600080fd5b50600436106100415760003560e01c80634395351914610046578063d45a568514610064578063f4c714b414610080575b600080fd5b61004e6100b2565b60405161005b91906105d2565b60405180910390f35b61007e6004803603810190610079919061047e565b6100b8565b005b61009a60048036038101906100959190610515565b61019c565b6040516100a993929190610586565b60405180910390f35b60015481565b600160008154809291906100cb906106e8565b91905055506040518060600160405280848152602001838152602001828152506000806001548152602001908152602001600020600082015181600001908051906020019061011b92919061035e565b50602082015181600101908051906020019061013892919061035e565b50604082015181600201908051906020019061015592919061035e565b509050506001547f9695d220e73c26e28712d873afbc71aee63d7e8cb5feefe9f943026925824edc84848460405161018f93929190610586565b60405180910390a2505050565b60006020528060005260406000206000915090508060000180546101bf906106b6565b80601f01602080910402602001604051908101604052809291908181526020018280546101eb906106b6565b80156102385780601f1061020d57610100808354040283529160200191610238565b820191906000526020600020905b81548152906001019060200180831161021b57829003601f168201915b50505050509080600101805461024d906106b6565b80601f0160208091040260200160405190810160405280929190818152602001828054610279906106b6565b80156102c65780601f1061029b576101008083540402835291602001916102c6565b820191906000526020600020905b8154815290600101906020018083116102a957829003601f168201915b5050505050908060020180546102db906106b6565b80601f0160208091040260200160405190810160405280929190818152602001828054610307906106b6565b80156103545780601f1061032957610100808354040283529160200191610354565b820191906000526020600020905b81548152906001019060200180831161033757829003601f168201915b5050505050905083565b82805461036a906106b6565b90600052602060002090601f01602090048101928261038c57600085556103d3565b82601f106103a557805160ff19168380011785556103d3565b828001600101855582156103d3579182015b828111156103d25782518255916020019190600101906103b7565b5b5090506103e091906103e4565b5090565b5b808211156103fd5760008160009055506001016103e5565b5090565b600061041461040f8461061e565b6105ed565b90508281526020810184848401111561042c57600080fd5b610437848285610674565b509392505050565b600082601f83011261045057600080fd5b8135610460848260208601610401565b91505092915050565b600081359050610478816107cf565b92915050565b60008060006060848603121561049357600080fd5b600084013567ffffffffffffffff8111156104ad57600080fd5b6104b98682870161043f565b935050602084013567ffffffffffffffff8111156104d657600080fd5b6104e28682870161043f565b925050604084013567ffffffffffffffff8111156104ff57600080fd5b61050b8682870161043f565b9150509250925092565b60006020828403121561052757600080fd5b600061053584828501610469565b91505092915050565b60006105498261064e565b6105538185610659565b9350610563818560208601610683565b61056c816107be565b840191505092915050565b6105808161066a565b82525050565b600060608201905081810360008301526105a0818661053e565b905081810360208301526105b4818561053e565b905081810360408301526105c8818461053e565b9050949350505050565b60006020820190506105e76000830184610577565b92915050565b6000604051905081810181811067ffffffffffffffff821117156106145761061361078f565b5b8060405250919050565b600067ffffffffffffffff8211156106395761063861078f565b5b601f19601f8301169050602081019050919050565b600081519050919050565b600082825260208201905092915050565b6000819050919050565b82818337600083830152505050565b60005b838110156106a1578082015181840152602081019050610686565b838111156106b0576000848401525b50505050565b600060028204905060018216806106ce57607f821691505b602082108114156106e2576106e1610760565b5b50919050565b60006106f38261066a565b91507fffffffffffffffffffffffffffffffffffffffffffffffffffffffffffffffff82141561072657610725610731565b5b600182019050919050565b7f4e487b7100000000000000000000000000000000000000000000000000000000600052601160045260246000fd5b7f4e487b7100000000000000000000000000000000000000000000000000000000600052602260045260246000fd5b7f4e487b7100000000000000000000000000000000000000000000000000000000600052604160045260246000fd5b6000601f19601f8301169050919050565b6107d88161066a565b81146107e357600080fd5b5056fea264697066735822122073d9bf6d154573e6e4e45170903d2d086bb791b68f4ec466ff42261958dbdc1d64736f6c63430008000033",
  "immutableReferences": {},
  "source": "// SPDX-License-Identifier: MIT\r\npragma solidity ^0.8.0;\r\n\r\ncontract FileStorage {\r\n    struct File {\r\n        string ipfsHash;\r\n        string timeLocationCoordinates;\r\n        string description;\r\n    }\r\n\r\n    mapping(uint256 => File) public files;\r\n    uint256 public fileCount;\r\n\r\n    event FileAdded(uint256 indexed fileId, string ipfsHash, string timeLocationCoordinates, string description);\r\n\r\n    function addFile(string memory _ipfsHash, string memory _timeLocationCoordinates, string memory _description) public {\r\n        fileCount++;\r\n        files[fileCount] = File(_ipfsHash, _timeLocationCoordinates, _description);\r\n        emit FileAdded(fileCount, _ipfsHash, _timeLocationCoordinates, _description);\r\n    }\r\n}\r\n",
  "sourcePath": "C:\\D\\projects\\pict\\FINAL\\new-garuda\\survillence\\backend\\node\\contracts\\FileStorage.sol",
  "compiler": {
    "name": "solc",
    "version": "0.8.0+commit.c7dfd78e.Emscripten.clang"
  },
  "schemaVersion": "3.4.16",
  "updatedAt": "2024-08-28T19:38:45.139Z",
  "networkType": "ethereum",
  "devdoc": {
    "kind": "dev",
    "methods": {},
    "version": 1
  },
  "userdoc": {
    "kind": "user",
    "methods": {},
    "version": 1
  }
}